{
  "contractName": "Vaccine",
  "abi": [
    {
      "constant": true,
      "inputs": [
        {
          "internalType": "uint256",
          "name": "",
          "type": "uint256"
        }
      ],
      "name": "Vaccine",
      "outputs": [
        {
          "internalType": "uint256",
          "name": "VaccineID",
          "type": "uint256"
        },
        {
          "internalType": "uint256",
          "name": "BatchNo",
          "type": "uint256"
        },
        {
          "internalType": "uint256",
          "name": "count",
          "type": "uint256"
        },
        {
          "internalType": "bool",
          "name": "life",
          "type": "bool"
        }
      ],
      "payable": false,
      "stateMutability": "view",
      "type": "function"
    },
    {
      "constant": true,
      "inputs": [
        {
          "internalType": "uint256",
          "name": "",
          "type": "uint256"
        }
      ],
      "name": "VaccineType",
      "outputs": [
        {
          "internalType": "string",
          "name": "name",
          "type": "string"
        },
        {
          "internalType": "uint256",
          "name": "VaccineID",
          "type": "uint256"
        },
        {
          "internalType": "uint256",
          "name": "min",
          "type": "uint256"
        },
        {
          "internalType": "uint256",
          "name": "max",
          "type": "uint256"
        },
        {
          "internalType": "uint256",
          "name": "QtyOrd",
          "type": "uint256"
        }
      ],
      "payable": false,
      "stateMutability": "view",
      "type": "function"
    },
    {
      "constant": false,
      "inputs": [],
      "name": "initialise",
      "outputs": [],
      "payable": false,
      "stateMutability": "nonpayable",
      "type": "function"
    },
    {
      "constant": false,
      "inputs": [
        {
          "internalType": "string",
          "name": "name_",
          "type": "string"
        },
        {
          "internalType": "uint256",
          "name": "min_",
          "type": "uint256"
        },
        {
          "internalType": "uint256",
          "name": "max_",
          "type": "uint256"
        }
      ],
      "name": "RegisterVaccine",
      "outputs": [],
      "payable": false,
      "stateMutability": "nonpayable",
      "type": "function"
    },
    {
      "constant": false,
      "inputs": [
        {
          "internalType": "uint256",
          "name": "ID",
          "type": "uint256"
        },
        {
          "internalType": "uint256",
          "name": "qty",
          "type": "uint256"
        }
      ],
      "name": "order",
      "outputs": [],
      "payable": false,
      "stateMutability": "nonpayable",
      "type": "function"
    },
    {
      "constant": false,
      "inputs": [
        {
          "internalType": "uint256",
          "name": "BatchNo",
          "type": "uint256"
        },
        {
          "internalType": "uint256",
          "name": "temp",
          "type": "uint256"
        }
      ],
      "name": "takevalue",
      "outputs": [],
      "payable": false,
      "stateMutability": "nonpayable",
      "type": "function"
    },
    {
      "constant": true,
      "inputs": [
        {
          "internalType": "uint256",
          "name": "ID",
          "type": "uint256"
        }
      ],
      "name": "getTemp",
      "outputs": [
        {
          "internalType": "uint256[]",
          "name": "",
          "type": "uint256[]"
        }
      ],
      "payable": false,
      "stateMutability": "view",
      "type": "function"
    }
  ],
  "bytecode": "0x608060405260028055600060035534801561001957600080fd5b50610a1d806100296000396000f3fe608060405234801561001057600080fd5b506004361061007d5760003560e01c80638970f5c11161005b5780638970f5c11461011f578063c42083fa146101ee578063d5ff573d146102b1578063ec9c59db146102e95761007d565b806333863ed914610082578063592e6f59146100ba57806365f4dc08146100c4575b600080fd5b6100b86004803603604081101561009857600080fd5b81019080803590602001909291908035906020019092919050505061036c565b005b6100c261049f565b005b6100f0600480360360208110156100da57600080fd5b810190808035906020019092919050505061054b565b604051808581526020018481526020018381526020018215151515815260200194505050505060405180910390f35b6101ec6004803603606081101561013557600080fd5b810190808035906020019064010000000081111561015257600080fd5b82018360208201111561016457600080fd5b8035906020019184600183028401116401000000008311171561018657600080fd5b91908080601f016020809104026020016040519081016040528093929190818152602001838380828437600081840152601f19601f8201169050808301925050505050505091929192908035906020019092919080359060200190929190505050610588565b005b61021a6004803603602081101561020457600080fd5b810190808035906020019092919050505061062d565b6040518080602001868152602001858152602001848152602001838152602001828103825287818151815260200191508051906020019080838360005b83811015610272578082015181840152602081019050610257565b50505050905090810190601f16801561029f5780820380516001836020036101000a031916815260200191505b50965050505050505060405180910390f35b6102e7600480360360408110156102c757600080fd5b8101908080359060200190929190803590602001909291905050506106fb565b005b610315600480360360208110156102ff57600080fd5b8101908080359060200190929190505050610836565b6040518080602001828103825283818151815260200191508051906020019060200280838360005b8381101561035857808201518184015260208101905061033d565b505050509050019250505060405180910390f35b60008090505b8181101561046757606060006040519080825280602002602001820160405280156103ac5781602001602082028038833980820191505090505b5090506040518060a00160405280858152602001600184600354010181526020016000815260200160011515815260200182815250600160006001600354860101815260200190815260200160002060008201518160000155602082015181600101556040820151816002015560608201518160030160006101000a81548160ff02191690831515021790555060808201518160040190805190602001906104559291906108a4565b50905050508080600101915050610372565b508060008084815260200190815260200160002060040160008282540192505081905550806003600082825401925050819055505050565b6104a76108f1565b6040518060a001604052806040518060600160405280602381526020016109c6602391398152602001600181526020016002815260200160088152602001600081525090508060008060018152602001908152602001600020600082015181600001908051906020019061051c929190610920565b506020820151816001015560408201518160020155606082015181600301556080820151816004015590505050565b60016020528060005260406000206000915090508060000154908060010154908060020154908060030160009054906101000a900460ff16905084565b6105906108f1565b6040518060a00160405280858152602001600254815260200184815260200183815260200160008152509050806000806002600081548092919060010191905055815260200190815260200160002060008201518160000190805190602001906105fb929190610920565b506020820151816001015560408201518160020155606082015181600301556080820151816004015590505050505050565b6000602052806000526040600020600091509050806000018054600181600116156101000203166002900480601f0160208091040260200160405190810160405280929190818152602001828054600181600116156101000203166002900480156106d95780601f106106ae576101008083540402835291602001916106d9565b820191906000526020600020905b8154815290600101906020018083116106bc57829003601f168201915b5050505050908060010154908060020154908060030154908060040154905085565b60016000838152602001908152602001600020600401819080600181540180825580915050906001820390600052602060002001600090919290919091505550600180600084815260200190815260200160002060020160008282540192505081905550600080600060016000868152602001908152602001600020600001548152602001908152602001600020600301548211806107c45750600080600160008681526020019081526020016000206000015481526020019081526020016000206002015482105b156107d257600090506107d7565b600190505b6001600084815260200190815260200160002060030160009054906101000a900460ff1680156108045750805b6001600085815260200190815260200160002060030160006101000a81548160ff021916908315150217905550505050565b60606001600083815260200190815260200160002060040180548060200260200160405190810160405280929190818152602001828054801561089857602002820191906000526020600020905b815481526020019060010190808311610884575b50505050509050919050565b8280548282559060005260206000209081019282156108e0579160200282015b828111156108df5782518255916020019190600101906108c4565b5b5090506108ed91906109a0565b5090565b6040518060a0016040528060608152602001600081526020016000815260200160008152602001600081525090565b828054600181600116156101000203166002900490600052602060002090601f016020900481019282601f1061096157805160ff191683800117855561098f565b8280016001018555821561098f579182015b8281111561098e578251825591602001919060010190610973565b5b50905061099c91906109a0565b5090565b6109c291905b808211156109be5760008160009055506001016109a6565b5090565b9056fe41737472615a656e6563612f4f78666f726420434f5649442d31392076616363696e65a265627a7a723158209f8e89a2ee18170820f4c2f49eac585f1b6a1e3d33c791462cc3ad7554f4b8d364736f6c63430005100032",
  "source": "pragma solidity >=0.4.22 <0.8.0;\r\n//pragma abicoder v2;\r\n\r\ncontract Vaccine {\r\n   mapping(uint => _VaccineType) public VaccineType;\r\n   struct _VaccineType{\r\n      string name;\r\n      uint VaccineID;   // each VaccineID corresponds to a different Vaccine's name\r\n      uint min;\r\n      uint max;\r\n      uint QtyOrd;\r\n    }\r\n\r\n    mapping(uint => _Vaccine) public Vaccine;\r\n    struct _Vaccine{\r\n       uint VaccineID;\r\n       uint BatchNo;\r\n       uint count;      // no of times temp was recorded\r\n       bool life;\r\n       uint[] TempData;\r\n    }\r\n    uint i=2;   //VaccineType ID\r\n    uint j=0;   //Total Qty Ordered, helps in giving different BatchID\r\n\r\nfunction initialise() public{\r\n_VaccineType memory v1;\r\nv1=_VaccineType(\"AstraZeneca/Oxford COVID-19 vaccine\",1,2,8,0);\r\nVaccineType[1]=v1;\r\n}\r\n\r\nfunction RegisterVaccine(string memory name_ , uint min_ , uint max_ ) public{\r\n      _VaccineType memory v;\r\n      v=_VaccineType(name_,i,min_,max_,0);\r\n      VaccineType[i++]=v;\r\n   }\r\n\r\nfunction order(uint ID ,uint qty) public{\r\nfor(uint i=0;i<qty;i++){\r\n uint[] memory arr=new uint[](0);\r\n Vaccine[i+j+1]=_Vaccine(ID,j+i+1 ,0,true,arr);\r\n}\r\nVaccineType[ID].QtyOrd+=qty;\r\nj+=qty;\r\n}\r\n\r\nfunction takevalue(uint BatchNo , uint temp ) public{\r\n//   if(Vaccine[ID].life==false)\r\n//   revert();\r\n     (Vaccine[BatchNo].TempData).push(temp);\r\n     Vaccine[BatchNo].count+=1;\r\n     bool state;\r\n     if(temp>VaccineType[Vaccine[BatchNo].VaccineID].max || temp<VaccineType[Vaccine[BatchNo].VaccineID].min){\r\n       state=false;\r\n     }\r\n     else state=true;\r\n     Vaccine[BatchNo].life=Vaccine[BatchNo].life&&state;\r\n  }\r\n\r\nfunction getTemp(uint ID) public view returns (uint[] memory ){\r\n    return Vaccine[ID].TempData;\r\n  }\r\n\r\n\r\n}\r\n",
  "sourcePath": "C:/Users/AkhilSuden/truffle/Vaccine/contracts/Vaccine.sol",
  "compiler": {
    "name": "solc",
    "version": "0.5.16+commit.9c3226ce.Emscripten.clang"
  },
  "schemaVersion": "3.4.1",
  "updatedAt": "2021-05-24T11:58:30.231Z",
  "networkType": "ethereum",
  "devdoc": {
    "methods": {}
  },
  "userdoc": {
    "methods": {}
  }
}